{
  "address": "0xe7f1725E7734CE288F8367e1Bb143E90bb3F0512",
  "abi": [
    {
      "inputs": [
        {
          "internalType": "uint256",
          "name": "initialSupply",
          "type": "uint256"
        },
        {
          "internalType": "address",
          "name": "linkPriceFeedAddress",
          "type": "address"
        }
      ],
      "stateMutability": "nonpayable",
      "type": "constructor"
    },
    {
      "anonymous": false,
      "inputs": [
        {
          "indexed": true,
          "internalType": "address",
          "name": "owner",
          "type": "address"
        },
        {
          "indexed": true,
          "internalType": "address",
          "name": "spender",
          "type": "address"
        },
        {
          "indexed": false,
          "internalType": "uint256",
          "name": "value",
          "type": "uint256"
        }
      ],
      "name": "Approval",
      "type": "event"
    },
    {
      "anonymous": false,
      "inputs": [
        {
          "indexed": true,
          "internalType": "address",
          "name": "from",
          "type": "address"
        },
        {
          "indexed": true,
          "internalType": "address",
          "name": "to",
          "type": "address"
        },
        {
          "indexed": false,
          "internalType": "uint256",
          "name": "value",
          "type": "uint256"
        }
      ],
      "name": "Transfer",
      "type": "event"
    },
    {
      "anonymous": false,
      "inputs": [
        {
          "indexed": true,
          "internalType": "address",
          "name": "player",
          "type": "address"
        }
      ],
      "name": "receiveLink",
      "type": "event"
    },
    {
      "inputs": [
        {
          "internalType": "address",
          "name": "owner",
          "type": "address"
        },
        {
          "internalType": "address",
          "name": "spender",
          "type": "address"
        }
      ],
      "name": "allowance",
      "outputs": [
        {
          "internalType": "uint256",
          "name": "",
          "type": "uint256"
        }
      ],
      "stateMutability": "view",
      "type": "function"
    },
    {
      "inputs": [
        {
          "internalType": "address",
          "name": "spender",
          "type": "address"
        },
        {
          "internalType": "uint256",
          "name": "amount",
          "type": "uint256"
        }
      ],
      "name": "approve",
      "outputs": [
        {
          "internalType": "bool",
          "name": "",
          "type": "bool"
        }
      ],
      "stateMutability": "nonpayable",
      "type": "function"
    },
    {
      "inputs": [
        {
          "internalType": "address",
          "name": "account",
          "type": "address"
        }
      ],
      "name": "balanceOf",
      "outputs": [
        {
          "internalType": "uint256",
          "name": "",
          "type": "uint256"
        }
      ],
      "stateMutability": "view",
      "type": "function"
    },
    {
      "inputs": [],
      "name": "decimals",
      "outputs": [
        {
          "internalType": "uint8",
          "name": "",
          "type": "uint8"
        }
      ],
      "stateMutability": "view",
      "type": "function"
    },
    {
      "inputs": [
        {
          "internalType": "address",
          "name": "spender",
          "type": "address"
        },
        {
          "internalType": "uint256",
          "name": "subtractedValue",
          "type": "uint256"
        }
      ],
      "name": "decreaseAllowance",
      "outputs": [
        {
          "internalType": "bool",
          "name": "",
          "type": "bool"
        }
      ],
      "stateMutability": "nonpayable",
      "type": "function"
    },
    {
      "inputs": [],
      "name": "getBalanceInLink",
      "outputs": [
        {
          "internalType": "uint256",
          "name": "",
          "type": "uint256"
        }
      ],
      "stateMutability": "view",
      "type": "function"
    },
    {
      "inputs": [],
      "name": "getBalanceInUsd",
      "outputs": [
        {
          "internalType": "uint256",
          "name": "",
          "type": "uint256"
        }
      ],
      "stateMutability": "view",
      "type": "function"
    },
    {
      "inputs": [
        {
          "internalType": "address",
          "name": "spender",
          "type": "address"
        },
        {
          "internalType": "uint256",
          "name": "addedValue",
          "type": "uint256"
        }
      ],
      "name": "increaseAllowance",
      "outputs": [
        {
          "internalType": "bool",
          "name": "",
          "type": "bool"
        }
      ],
      "stateMutability": "nonpayable",
      "type": "function"
    },
    {
      "inputs": [],
      "name": "linkTokenAddress",
      "outputs": [
        {
          "internalType": "address",
          "name": "",
          "type": "address"
        }
      ],
      "stateMutability": "view",
      "type": "function"
    },
    {
      "inputs": [],
      "name": "name",
      "outputs": [
        {
          "internalType": "string",
          "name": "",
          "type": "string"
        }
      ],
      "stateMutability": "view",
      "type": "function"
    },
    {
      "inputs": [],
      "name": "receiveLinkTokens",
      "outputs": [],
      "stateMutability": "nonpayable",
      "type": "function"
    },
    {
      "inputs": [],
      "name": "symbol",
      "outputs": [
        {
          "internalType": "string",
          "name": "",
          "type": "string"
        }
      ],
      "stateMutability": "view",
      "type": "function"
    },
    {
      "inputs": [],
      "name": "totalSupply",
      "outputs": [
        {
          "internalType": "uint256",
          "name": "",
          "type": "uint256"
        }
      ],
      "stateMutability": "view",
      "type": "function"
    },
    {
      "inputs": [
        {
          "internalType": "address",
          "name": "to",
          "type": "address"
        },
        {
          "internalType": "uint256",
          "name": "amount",
          "type": "uint256"
        }
      ],
      "name": "transfer",
      "outputs": [
        {
          "internalType": "bool",
          "name": "",
          "type": "bool"
        }
      ],
      "stateMutability": "nonpayable",
      "type": "function"
    },
    {
      "inputs": [
        {
          "internalType": "address",
          "name": "from",
          "type": "address"
        },
        {
          "internalType": "address",
          "name": "to",
          "type": "address"
        },
        {
          "internalType": "uint256",
          "name": "amount",
          "type": "uint256"
        }
      ],
      "name": "transferFrom",
      "outputs": [
        {
          "internalType": "bool",
          "name": "",
          "type": "bool"
        }
      ],
      "stateMutability": "nonpayable",
      "type": "function"
    }
  ],
  "transactionHash": "0xf188479746bfb9b93aa1db41194f20f47eb12b6cec6a115cc54f78d19a06f43d",
  "args": [
    "100000000000000000000000",
    "0x5FbDB2315678afecb367f032d93F642f64180aa3"
  ],
  "numDeployments": 1,
  "solcInputHash": "17ab9373d7ef92a7dee65e91b3d372bb",
  "bytecode": "0x608060405273514910771af9ca656af840dff83e8264ecf986ca600860006101000a81548173ffffffffffffffffffffffffffffffffffffffff021916908373ffffffffffffffffffffffffffffffffffffffff1602179055503480156200006657600080fd5b50604051620020493803806200204983398181016040528101906200008c9190620003dd565b6040518060400160405280600381526020017f46545800000000000000000000000000000000000000000000000000000000008152506040518060400160405280600381526020017f4654540000000000000000000000000000000000000000000000000000000000815250816003908051906020019062000110929190620002ff565b50806004908051906020019062000129929190620002ff565b5050506200013e33836200018760201b60201c565b80600760006101000a81548173ffffffffffffffffffffffffffffffffffffffff021916908373ffffffffffffffffffffffffffffffffffffffff16021790555050506200063d565b600073ffffffffffffffffffffffffffffffffffffffff168273ffffffffffffffffffffffffffffffffffffffff161415620001fa576040517f08c379a0000000000000000000000000000000000000000000000000000000008152600401620001f1906200045c565b60405180910390fd5b6200020e60008383620002f560201b60201c565b8060026000828254620002229190620004ac565b92505081905550806000808473ffffffffffffffffffffffffffffffffffffffff1673ffffffffffffffffffffffffffffffffffffffff168152602001908152602001600020600082825401925050819055508173ffffffffffffffffffffffffffffffffffffffff16600073ffffffffffffffffffffffffffffffffffffffff167fddf252ad1be2c89b69c2b068fc378daa952ba7f163c4a11628f55a4df523b3ef83604051620002d591906200047e565b60405180910390a3620002f160008383620002fa60201b60201c565b5050565b505050565b505050565b8280546200030d9062000547565b90600052602060002090601f0160209004810192826200033157600085556200037d565b82601f106200034c57805160ff19168380011785556200037d565b828001600101855582156200037d579182015b828111156200037c5782518255916020019190600101906200035f565b5b5090506200038c919062000390565b5090565b5b80821115620003ab57600081600090555060010162000391565b5090565b600081519050620003c08162000609565b92915050565b600081519050620003d78162000623565b92915050565b60008060408385031215620003f757620003f6620005db565b5b60006200040785828601620003c6565b92505060206200041a85828601620003af565b9150509250929050565b600062000433601f836200049b565b91506200044082620005e0565b602082019050919050565b62000456816200053d565b82525050565b60006020820190508181036000830152620004778162000424565b9050919050565b60006020820190506200049560008301846200044b565b92915050565b600082825260208201905092915050565b6000620004b9826200053d565b9150620004c6836200053d565b9250827fffffffffffffffffffffffffffffffffffffffffffffffffffffffffffffffff03821115620004fe57620004fd6200057d565b5b828201905092915050565b600062000516826200051d565b9050919050565b600073ffffffffffffffffffffffffffffffffffffffff82169050919050565b6000819050919050565b600060028204905060018216806200056057607f821691505b60208210811415620005775762000576620005ac565b5b50919050565b7f4e487b7100000000000000000000000000000000000000000000000000000000600052601160045260246000fd5b7f4e487b7100000000000000000000000000000000000000000000000000000000600052602260045260246000fd5b600080fd5b7f45524332303a206d696e7420746f20746865207a65726f206164647265737300600082015250565b620006148162000509565b81146200062057600080fd5b50565b6200062e816200053d565b81146200063a57600080fd5b50565b6119fc806200064d6000396000f3fe608060405234801561001057600080fd5b50600436106100f55760003560e01c80633950935111610097578063a9059cbb11610066578063a9059cbb1461029e578063dd62ed3e146102ce578063ef124faf146102fe578063fe6b690c1461031c576100f5565b806339509351146101f057806370a082311461022057806395d89b4114610250578063a457c2d71461026e576100f5565b806320352186116100d3578063203521861461016657806323b872dd1461018457806324c0b126146101b4578063313ce567146101d2576100f5565b806306fdde03146100fa578063095ea7b31461011857806318160ddd14610148575b600080fd5b610102610326565b60405161010f9190611346565b60405180910390f35b610132600480360381019061012d9190610feb565b6103b8565b60405161013f919061132b565b60405180910390f35b6101506103db565b60405161015d9190611488565b60405180910390f35b61016e6103e5565b60405161017b9190611488565b60405180910390f35b61019e60048036038101906101999190610f98565b6103ef565b6040516101ab919061132b565b60405180910390f35b6101bc61041e565b6040516101c99190611488565b60405180910390f35b6101da610428565b6040516101e791906114a3565b60405180910390f35b61020a60048036038101906102059190610feb565b610431565b604051610217919061132b565b60405180910390f35b61023a60048036038101906102359190610f2b565b610468565b6040516102479190611488565b60405180910390f35b6102586104b0565b6040516102659190611346565b60405180910390f35b61028860048036038101906102839190610feb565b610542565b604051610295919061132b565b60405180910390f35b6102b860048036038101906102b39190610feb565b6105b9565b6040516102c5919061132b565b60405180910390f35b6102e860048036038101906102e39190610f58565b6105dc565b6040516102f59190611488565b60405180910390f35b610306610663565b60405161031391906112b0565b60405180910390f35b610324610689565b005b60606003805461033590611632565b80601f016020809104026020016040519081016040528092919081815260200182805461036190611632565b80156103ae5780601f10610383576101008083540402835291602001916103ae565b820191906000526020600020905b81548152906001019060200180831161039157829003601f168201915b5050505050905090565b6000806103c361092c565b90506103d0818585610934565b600191505092915050565b6000600254905090565b6000600654905090565b6000806103fa61092c565b9050610407858285610aff565b610412858585610b8b565b60019150509392505050565b6000600554905090565b60006012905090565b60008061043c61092c565b905061045d81858561044e85896105dc565b61045891906114da565b610934565b600191505092915050565b60008060008373ffffffffffffffffffffffffffffffffffffffff1673ffffffffffffffffffffffffffffffffffffffff168152602001908152602001600020549050919050565b6060600480546104bf90611632565b80601f01602080910402602001604051908101604052809291908181526020018280546104eb90611632565b80156105385780601f1061050d57610100808354040283529160200191610538565b820191906000526020600020905b81548152906001019060200180831161051b57829003601f168201915b5050505050905090565b60008061054d61092c565b9050600061055b82866105dc565b9050838110156105a0576040517f08c379a000000000000000000000000000000000000000000000000000000000815260040161059790611468565b60405180910390fd5b6105ad8286868403610934565b60019250505092915050565b6000806105c461092c565b90506105d1818585610b8b565b600191505092915050565b6000600160008473ffffffffffffffffffffffffffffffffffffffff1673ffffffffffffffffffffffffffffffffffffffff16815260200190815260200160002060008373ffffffffffffffffffffffffffffffffffffffff1673ffffffffffffffffffffffffffffffffffffffff16815260200190815260200160002054905092915050565b600860009054906101000a900473ffffffffffffffffffffffffffffffffffffffff1681565b6611c37937e08000600860009054906101000a900473ffffffffffffffffffffffffffffffffffffffff1673ffffffffffffffffffffffffffffffffffffffff1663dd62ed3e33306040518363ffffffff1660e01b81526004016106ee9291906112cb565b60206040518083038186803b15801561070657600080fd5b505afa15801561071a573d6000803e3d6000fd5b505050506040513d601f19601f8201168201806040525081019061073e9190611058565b101561077f576040517f08c379a000000000000000000000000000000000000000000000000000000000815260040161077690611408565b60405180910390fd5b600860009054906101000a900473ffffffffffffffffffffffffffffffffffffffff1673ffffffffffffffffffffffffffffffffffffffff166323b872dd33306611c37937e080006040518463ffffffff1660e01b81526004016107e5939291906112f4565b602060405180830381600087803b1580156107ff57600080fd5b505af1158015610813573d6000803e3d6000fd5b505050506040513d601f19601f82011682018060405250810190610837919061102b565b610876576040517f08c379a000000000000000000000000000000000000000000000000000000000815260040161086d906113e8565b60405180910390fd5b60006108a3600760009054906101000a900473ffffffffffffffffffffffffffffffffffffffff16610e03565b90506611c37937e080006005546108ba91906114da565b6005819055506611c37937e08000816108d39190611530565b6006546108e091906114da565b6006819055503373ffffffffffffffffffffffffffffffffffffffff167f9f134c02598131fb080de146a189ec1872eb47370d22898214967b10e6da8d8960405160405180910390a250565b600033905090565b600073ffffffffffffffffffffffffffffffffffffffff168373ffffffffffffffffffffffffffffffffffffffff1614156109a4576040517f08c379a000000000000000000000000000000000000000000000000000000000815260040161099b90611448565b60405180910390fd5b600073ffffffffffffffffffffffffffffffffffffffff168273ffffffffffffffffffffffffffffffffffffffff161415610a14576040517f08c379a0000000000000000000000000000000000000000000000000000000008152600401610a0b90611388565b60405180910390fd5b80600160008573ffffffffffffffffffffffffffffffffffffffff1673ffffffffffffffffffffffffffffffffffffffff16815260200190815260200160002060008473ffffffffffffffffffffffffffffffffffffffff1673ffffffffffffffffffffffffffffffffffffffff168152602001908152602001600020819055508173ffffffffffffffffffffffffffffffffffffffff168373ffffffffffffffffffffffffffffffffffffffff167f8c5be1e5ebec7d5bd14f71427d1e84f3dd0314c0f7b2291e5b200ac8c7c3b92583604051610af29190611488565b60405180910390a3505050565b6000610b0b84846105dc565b90507fffffffffffffffffffffffffffffffffffffffffffffffffffffffffffffffff8114610b855781811015610b77576040517f08c379a0000000000000000000000000000000000000000000000000000000008152600401610b6e906113a8565b60405180910390fd5b610b848484848403610934565b5b50505050565b600073ffffffffffffffffffffffffffffffffffffffff168373ffffffffffffffffffffffffffffffffffffffff161415610bfb576040517f08c379a0000000000000000000000000000000000000000000000000000000008152600401610bf290611428565b60405180910390fd5b600073ffffffffffffffffffffffffffffffffffffffff168273ffffffffffffffffffffffffffffffffffffffff161415610c6b576040517f08c379a0000000000000000000000000000000000000000000000000000000008152600401610c6290611368565b60405180910390fd5b610c76838383610ea3565b60008060008573ffffffffffffffffffffffffffffffffffffffff1673ffffffffffffffffffffffffffffffffffffffff16815260200190815260200160002054905081811015610cfc576040517f08c379a0000000000000000000000000000000000000000000000000000000008152600401610cf3906113c8565b60405180910390fd5b8181036000808673ffffffffffffffffffffffffffffffffffffffff1673ffffffffffffffffffffffffffffffffffffffff16815260200190815260200160002081905550816000808573ffffffffffffffffffffffffffffffffffffffff1673ffffffffffffffffffffffffffffffffffffffff168152602001908152602001600020600082825401925050819055508273ffffffffffffffffffffffffffffffffffffffff168473ffffffffffffffffffffffffffffffffffffffff167fddf252ad1be2c89b69c2b068fc378daa952ba7f163c4a11628f55a4df523b3ef84604051610dea9190611488565b60405180910390a3610dfd848484610ea8565b50505050565b6000808273ffffffffffffffffffffffffffffffffffffffff1663feaf968c6040518163ffffffff1660e01b815260040160a06040518083038186803b158015610e4c57600080fd5b505afa158015610e60573d6000803e3d6000fd5b505050506040513d601f19601f82011682018060405250810190610e849190611085565b5050509150506402540be40081610e9b9190611530565b915050919050565b505050565b505050565b600081359050610ebc81611953565b92915050565b600081519050610ed18161196a565b92915050565b600081519050610ee681611981565b92915050565b600081359050610efb81611998565b92915050565b600081519050610f1081611998565b92915050565b600081519050610f25816119af565b92915050565b600060208284031215610f4157610f406116c2565b5b6000610f4f84828501610ead565b91505092915050565b60008060408385031215610f6f57610f6e6116c2565b5b6000610f7d85828601610ead565b9250506020610f8e85828601610ead565b9150509250929050565b600080600060608486031215610fb157610fb06116c2565b5b6000610fbf86828701610ead565b9350506020610fd086828701610ead565b9250506040610fe186828701610eec565b9150509250925092565b60008060408385031215611002576110016116c2565b5b600061101085828601610ead565b925050602061102185828601610eec565b9150509250929050565b600060208284031215611041576110406116c2565b5b600061104f84828501610ec2565b91505092915050565b60006020828403121561106e5761106d6116c2565b5b600061107c84828501610f01565b91505092915050565b600080600080600060a086880312156110a1576110a06116c2565b5b60006110af88828901610f16565b95505060206110c088828901610ed7565b94505060406110d188828901610f01565b93505060606110e288828901610f01565b92505060806110f388828901610f16565b9150509295509295909350565b6111098161158a565b82525050565b6111188161159c565b82525050565b6000611129826114be565b61113381856114c9565b93506111438185602086016115ff565b61114c816116c7565b840191505092915050565b60006111646023836114c9565b915061116f826116d8565b604082019050919050565b60006111876022836114c9565b915061119282611727565b604082019050919050565b60006111aa601d836114c9565b91506111b582611776565b602082019050919050565b60006111cd6026836114c9565b91506111d88261179f565b604082019050919050565b60006111f06015836114c9565b91506111fb826117ee565b602082019050919050565b60006112136034836114c9565b915061121e82611817565b604082019050919050565b60006112366025836114c9565b915061124182611866565b604082019050919050565b60006112596024836114c9565b9150611264826118b5565b604082019050919050565b600061127c6025836114c9565b915061128782611904565b604082019050919050565b61129b816115d2565b82525050565b6112aa816115dc565b82525050565b60006020820190506112c56000830184611100565b92915050565b60006040820190506112e06000830185611100565b6112ed6020830184611100565b9392505050565b60006060820190506113096000830186611100565b6113166020830185611100565b6113236040830184611292565b949350505050565b6000602082019050611340600083018461110f565b92915050565b60006020820190508181036000830152611360818461111e565b905092915050565b6000602082019050818103600083015261138181611157565b9050919050565b600060208201905081810360008301526113a18161117a565b9050919050565b600060208201905081810360008301526113c18161119d565b9050919050565b600060208201905081810360008301526113e1816111c0565b9050919050565b60006020820190508181036000830152611401816111e3565b9050919050565b6000602082019050818103600083015261142181611206565b9050919050565b6000602082019050818103600083015261144181611229565b9050919050565b600060208201905081810360008301526114618161124c565b9050919050565b600060208201905081810360008301526114818161126f565b9050919050565b600060208201905061149d6000830184611292565b92915050565b60006020820190506114b860008301846112a1565b92915050565b600081519050919050565b600082825260208201905092915050565b60006114e5826115d2565b91506114f0836115d2565b9250827fffffffffffffffffffffffffffffffffffffffffffffffffffffffffffffffff0382111561152557611524611664565b5b828201905092915050565b600061153b826115d2565b9150611546836115d2565b9250817fffffffffffffffffffffffffffffffffffffffffffffffffffffffffffffffff048311821515161561157f5761157e611664565b5b828202905092915050565b6000611595826115b2565b9050919050565b60008115159050919050565b6000819050919050565b600073ffffffffffffffffffffffffffffffffffffffff82169050919050565b6000819050919050565b600060ff82169050919050565b600069ffffffffffffffffffff82169050919050565b60005b8381101561161d578082015181840152602081019050611602565b8381111561162c576000848401525b50505050565b6000600282049050600182168061164a57607f821691505b6020821081141561165e5761165d611693565b5b50919050565b7f4e487b7100000000000000000000000000000000000000000000000000000000600052601160045260246000fd5b7f4e487b7100000000000000000000000000000000000000000000000000000000600052602260045260246000fd5b600080fd5b6000601f19601f8301169050919050565b7f45524332303a207472616e7366657220746f20746865207a65726f206164647260008201527f6573730000000000000000000000000000000000000000000000000000000000602082015250565b7f45524332303a20617070726f766520746f20746865207a65726f20616464726560008201527f7373000000000000000000000000000000000000000000000000000000000000602082015250565b7f45524332303a20696e73756666696369656e7420616c6c6f77616e6365000000600082015250565b7f45524332303a207472616e7366657220616d6f756e742065786365656473206260008201527f616c616e63650000000000000000000000000000000000000000000000000000602082015250565b7f546f6b656e207472616e73666572206661696c65640000000000000000000000600082015250565b7f546f6b656e73206d75737420626520617070726f766564206265666f7265206360008201527f616c6c696e6720746869732066756e6374696f6e000000000000000000000000602082015250565b7f45524332303a207472616e736665722066726f6d20746865207a65726f20616460008201527f6472657373000000000000000000000000000000000000000000000000000000602082015250565b7f45524332303a20617070726f76652066726f6d20746865207a65726f2061646460008201527f7265737300000000000000000000000000000000000000000000000000000000602082015250565b7f45524332303a2064656372656173656420616c6c6f77616e63652062656c6f7760008201527f207a65726f000000000000000000000000000000000000000000000000000000602082015250565b61195c8161158a565b811461196757600080fd5b50565b6119738161159c565b811461197e57600080fd5b50565b61198a816115a8565b811461199557600080fd5b50565b6119a1816115d2565b81146119ac57600080fd5b50565b6119b8816115e9565b81146119c357600080fd5b5056fea26469706673582212206469a482edecf9349e0efbc4c8a2f7ec02965b9527652eb7175f2bdd38d1d42464736f6c63430008070033",
  "devdoc": {
    "kind": "dev",
    "methods": {
      "allowance(address,address)": {
        "details": "See {IERC20-allowance}."
      },
      "approve(address,uint256)": {
        "details": "See {IERC20-approve}. NOTE: If `amount` is the maximum `uint256`, the allowance is not updated on `transferFrom`. This is semantically equivalent to an infinite approval. Requirements: - `spender` cannot be the zero address."
      },
      "balanceOf(address)": {
        "details": "See {IERC20-balanceOf}."
      },
      "decimals()": {
        "details": "Returns the number of decimals used to get its user representation. For example, if `decimals` equals `2`, a balance of `505` tokens should be displayed to a user as `5.05` (`505 / 10 ** 2`). Tokens usually opt for a value of 18, imitating the relationship between Ether and Wei. This is the value {ERC20} uses, unless this function is overridden; NOTE: This information is only used for _display_ purposes: it in no way affects any of the arithmetic of the contract, including {IERC20-balanceOf} and {IERC20-transfer}."
      },
      "decreaseAllowance(address,uint256)": {
        "details": "Atomically decreases the allowance granted to `spender` by the caller. This is an alternative to {approve} that can be used as a mitigation for problems described in {IERC20-approve}. Emits an {Approval} event indicating the updated allowance. Requirements: - `spender` cannot be the zero address. - `spender` must have allowance for the caller of at least `subtractedValue`."
      },
      "increaseAllowance(address,uint256)": {
        "details": "Atomically increases the allowance granted to `spender` by the caller. This is an alternative to {approve} that can be used as a mitigation for problems described in {IERC20-approve}. Emits an {Approval} event indicating the updated allowance. Requirements: - `spender` cannot be the zero address."
      },
      "name()": {
        "details": "Returns the name of the token."
      },
      "symbol()": {
        "details": "Returns the symbol of the token, usually a shorter version of the name."
      },
      "totalSupply()": {
        "details": "See {IERC20-totalSupply}."
      },
      "transfer(address,uint256)": {
        "details": "See {IERC20-transfer}. Requirements: - `to` cannot be the zero address. - the caller must have a balance of at least `amount`."
      },
      "transferFrom(address,address,uint256)": {
        "details": "See {IERC20-transferFrom}. Emits an {Approval} event indicating the updated allowance. This is not required by the EIP. See the note at the beginning of {ERC20}. NOTE: Does not update the allowance if the current allowance is the maximum `uint256`. Requirements: - `from` and `to` cannot be the zero address. - `from` must have a balance of at least `amount`. - the caller must have allowance for ``from``'s tokens of at least `amount`."
      }
    },
    "version": 1
  },
  "userdoc": {
    "kind": "user",
    "methods": {},
    "version": 1
  },
  "storageLayout": {
    "storage": [
      {
        "astId": 61,
        "contract": "contracts/Token.sol:Token",
        "label": "_balances",
        "offset": 0,
        "slot": "0",
        "type": "t_mapping(t_address,t_uint256)"
      },
      {
        "astId": 67,
        "contract": "contracts/Token.sol:Token",
        "label": "_allowances",
        "offset": 0,
        "slot": "1",
        "type": "t_mapping(t_address,t_mapping(t_address,t_uint256))"
      },
      {
        "astId": 69,
        "contract": "contracts/Token.sol:Token",
        "label": "_totalSupply",
        "offset": 0,
        "slot": "2",
        "type": "t_uint256"
      },
      {
        "astId": 71,
        "contract": "contracts/Token.sol:Token",
        "label": "_name",
        "offset": 0,
        "slot": "3",
        "type": "t_string_storage"
      },
      {
        "astId": 73,
        "contract": "contracts/Token.sol:Token",
        "label": "_symbol",
        "offset": 0,
        "slot": "4",
        "type": "t_string_storage"
      },
      {
        "astId": 775,
        "contract": "contracts/Token.sol:Token",
        "label": "s_balanceInLink",
        "offset": 0,
        "slot": "5",
        "type": "t_uint256"
      },
      {
        "astId": 777,
        "contract": "contracts/Token.sol:Token",
        "label": "s_balanceInUsd",
        "offset": 0,
        "slot": "6",
        "type": "t_uint256"
      },
      {
        "astId": 780,
        "contract": "contracts/Token.sol:Token",
        "label": "s_linkPriceFeedAddress",
        "offset": 0,
        "slot": "7",
        "type": "t_contract(AggregatorV3Interface)45"
      },
      {
        "astId": 783,
        "contract": "contracts/Token.sol:Token",
        "label": "linkTokenAddress",
        "offset": 0,
        "slot": "8",
        "type": "t_address"
      }
    ],
    "types": {
      "t_address": {
        "encoding": "inplace",
        "label": "address",
        "numberOfBytes": "20"
      },
      "t_contract(AggregatorV3Interface)45": {
        "encoding": "inplace",
        "label": "contract AggregatorV3Interface",
        "numberOfBytes": "20"
      },
      "t_mapping(t_address,t_mapping(t_address,t_uint256))": {
        "encoding": "mapping",
        "key": "t_address",
        "label": "mapping(address => mapping(address => uint256))",
        "numberOfBytes": "32",
        "value": "t_mapping(t_address,t_uint256)"
      },
      "t_mapping(t_address,t_uint256)": {
        "encoding": "mapping",
        "key": "t_address",
        "label": "mapping(address => uint256)",
        "numberOfBytes": "32",
        "value": "t_uint256"
      },
      "t_string_storage": {
        "encoding": "bytes",
        "label": "string",
        "numberOfBytes": "32"
      },
      "t_uint256": {
        "encoding": "inplace",
        "label": "uint256",
        "numberOfBytes": "32"
      }
    }
  }
}