{
  "address": "0xaC4974B0B1324Ced62861EC3D444754E1Ca1d54A",
  "abi": [
    {
      "inputs": [
        {
          "internalType": "address",
          "name": "linkPriceFeedAddress",
          "type": "address"
        }
      ],
      "stateMutability": "nonpayable",
      "type": "constructor"
    },
    {
      "anonymous": false,
      "inputs": [
        {
          "indexed": true,
          "internalType": "address",
          "name": "player",
          "type": "address"
        }
      ],
      "name": "receiveLink",
      "type": "event"
    },
    {
      "inputs": [],
      "name": "getBalanceInLink",
      "outputs": [
        {
          "internalType": "uint256",
          "name": "",
          "type": "uint256"
        }
      ],
      "stateMutability": "view",
      "type": "function"
    },
    {
      "inputs": [],
      "name": "getBalanceInUsd",
      "outputs": [
        {
          "internalType": "uint256",
          "name": "",
          "type": "uint256"
        }
      ],
      "stateMutability": "view",
      "type": "function"
    },
    {
      "inputs": [],
      "name": "linkTokenAddress",
      "outputs": [
        {
          "internalType": "address",
          "name": "",
          "type": "address"
        }
      ],
      "stateMutability": "view",
      "type": "function"
    },
    {
      "inputs": [],
      "name": "receiveLinkTokens",
      "outputs": [],
      "stateMutability": "nonpayable",
      "type": "function"
    }
  ],
  "transactionHash": "0xd0b56bc3795a284539fd36e276f5bc2a07cd4481cd4ed0962cac46af23471e37",
  "args": [
    "0x48731cF7e84dc94C5f84577882c14Be11a5B7456"
  ],
  "numDeployments": 6,
  "solcInputHash": "fe563c304c59b25726d267cf374837e0",
  "bytecode": "0x60806040526001600055600060015573326c977e6efc84e512bb9c30f76e30c160ed06fb600360006101000a81548173ffffffffffffffffffffffffffffffffffffffff021916908373ffffffffffffffffffffffffffffffffffffffff16021790555034801561006f57600080fd5b50604051610a72380380610a72833981810160405281019061009191906100ed565b80600260006101000a81548173ffffffffffffffffffffffffffffffffffffffff021916908373ffffffffffffffffffffffffffffffffffffffff16021790555050610168565b6000815190506100e781610151565b92915050565b6000602082840312156101035761010261014c565b5b6000610111848285016100d8565b91505092915050565b60006101258261012c565b9050919050565b600073ffffffffffffffffffffffffffffffffffffffff82169050919050565b600080fd5b61015a8161011a565b811461016557600080fd5b50565b6108fb806101776000396000f3fe608060405234801561001057600080fd5b506004361061004c5760003560e01c8063203521861461005157806324c0b1261461006f578063ef124faf1461008d578063fe6b690c146100ab575b600080fd5b6100596100b5565b6040516100669190610679565b60405180910390f35b6100776100bf565b6040516100849190610679565b60405180910390f35b6100956100c8565b6040516100a291906105be565b60405180910390f35b6100b36100ee565b005b6000600154905090565b60008054905090565b600360009054906101000a900473ffffffffffffffffffffffffffffffffffffffff1681565b6611c37937e08000600360009054906101000a900473ffffffffffffffffffffffffffffffffffffffff1673ffffffffffffffffffffffffffffffffffffffff1663dd62ed3e33306040518363ffffffff1660e01b81526004016101539291906105d9565b60206040518083038186803b15801561016b57600080fd5b505afa15801561017f573d6000803e3d6000fd5b505050506040513d601f19601f820116820180604052508101906101a391906104b2565b10156101e4576040517f08c379a00000000000000000000000000000000000000000000000000000000081526004016101db90610659565b60405180910390fd5b600360009054906101000a900473ffffffffffffffffffffffffffffffffffffffff1673ffffffffffffffffffffffffffffffffffffffff166323b872dd33306611c37937e080006040518463ffffffff1660e01b815260040161024a93929190610602565b602060405180830381600087803b15801561026457600080fd5b505af1158015610278573d6000803e3d6000fd5b505050506040513d601f19601f8201168201806040525081019061029c9190610485565b6102db576040517f08c379a00000000000000000000000000000000000000000000000000000000081526004016102d290610639565b60405180910390fd5b6000610308600260009054906101000a900473ffffffffffffffffffffffffffffffffffffffff16610391565b90506611c37937e0800060005461031f91906106a5565b6000819055506611c37937e080008161033891906106fb565b60015461034591906106a5565b6001819055503373ffffffffffffffffffffffffffffffffffffffff167f9f134c02598131fb080de146a189ec1872eb47370d22898214967b10e6da8d8960405160405180910390a250565b6000808273ffffffffffffffffffffffffffffffffffffffff1663feaf968c6040518163ffffffff1660e01b815260040160a06040518083038186803b1580156103da57600080fd5b505afa1580156103ee573d6000803e3d6000fd5b505050506040513d601f19601f8201168201806040525081019061041291906104df565b5050509150506402540be4008161042991906106fb565b915050919050565b60008151905061044081610869565b92915050565b60008151905061045581610880565b92915050565b60008151905061046a81610897565b92915050565b60008151905061047f816108ae565b92915050565b60006020828403121561049b5761049a6107ec565b5b60006104a984828501610431565b91505092915050565b6000602082840312156104c8576104c76107ec565b5b60006104d68482850161045b565b91505092915050565b600080600080600060a086880312156104fb576104fa6107ec565b5b600061050988828901610470565b955050602061051a88828901610446565b945050604061052b8882890161045b565b935050606061053c8882890161045b565b925050608061054d88828901610470565b9150509295509295909350565b61056381610755565b82525050565b6000610576601583610694565b9150610581826107f1565b602082019050919050565b6000610599603483610694565b91506105a48261081a565b604082019050919050565b6105b88161079d565b82525050565b60006020820190506105d3600083018461055a565b92915050565b60006040820190506105ee600083018561055a565b6105fb602083018461055a565b9392505050565b6000606082019050610617600083018661055a565b610624602083018561055a565b61063160408301846105af565b949350505050565b6000602082019050818103600083015261065281610569565b9050919050565b600060208201905081810360008301526106728161058c565b9050919050565b600060208201905061068e60008301846105af565b92915050565b600082825260208201905092915050565b60006106b08261079d565b91506106bb8361079d565b9250827fffffffffffffffffffffffffffffffffffffffffffffffffffffffffffffffff038211156106f0576106ef6107bd565b5b828201905092915050565b60006107068261079d565b91506107118361079d565b9250817fffffffffffffffffffffffffffffffffffffffffffffffffffffffffffffffff048311821515161561074a576107496107bd565b5b828202905092915050565b60006107608261077d565b9050919050565b60008115159050919050565b6000819050919050565b600073ffffffffffffffffffffffffffffffffffffffff82169050919050565b6000819050919050565b600069ffffffffffffffffffff82169050919050565b7f4e487b7100000000000000000000000000000000000000000000000000000000600052601160045260246000fd5b600080fd5b7f546f6b656e207472616e73666572206661696c65640000000000000000000000600082015250565b7f546f6b656e73206d75737420626520617070726f766564206265666f7265206360008201527f616c6c696e6720746869732066756e6374696f6e000000000000000000000000602082015250565b61087281610767565b811461087d57600080fd5b50565b61088981610773565b811461089457600080fd5b50565b6108a08161079d565b81146108ab57600080fd5b50565b6108b7816107a7565b81146108c257600080fd5b5056fea2646970667358221220d8145eab4163ed1ffcdbc7d99665fcfc0bc319d74541fc59904de124d995bf8d64736f6c63430008070033",
  "devdoc": {
    "kind": "dev",
    "methods": {},
    "version": 1
  },
  "userdoc": {
    "kind": "user",
    "methods": {},
    "version": 1
  },
  "storageLayout": {
    "storage": [
      {
        "astId": 139,
        "contract": "contracts/Token.sol:Token",
        "label": "s_balanceInLink",
        "offset": 0,
        "slot": "0",
        "type": "t_uint256"
      },
      {
        "astId": 142,
        "contract": "contracts/Token.sol:Token",
        "label": "s_balanceInUsd",
        "offset": 0,
        "slot": "1",
        "type": "t_uint256"
      },
      {
        "astId": 145,
        "contract": "contracts/Token.sol:Token",
        "label": "s_linkPriceFeedAddress",
        "offset": 0,
        "slot": "2",
        "type": "t_contract(AggregatorV3Interface)45"
      },
      {
        "astId": 148,
        "contract": "contracts/Token.sol:Token",
        "label": "linkTokenAddress",
        "offset": 0,
        "slot": "3",
        "type": "t_address"
      }
    ],
    "types": {
      "t_address": {
        "encoding": "inplace",
        "label": "address",
        "numberOfBytes": "20"
      },
      "t_contract(AggregatorV3Interface)45": {
        "encoding": "inplace",
        "label": "contract AggregatorV3Interface",
        "numberOfBytes": "20"
      },
      "t_uint256": {
        "encoding": "inplace",
        "label": "uint256",
        "numberOfBytes": "32"
      }
    }
  }
}